{
  "_format": "hh-sol-artifact-1",
  "contractName": "MyEpicGame",
  "sourceName": "contracts/MyEpicGame.sol",
  "abi": [
    {
      "inputs": [
        {
          "internalType": "string[]",
          "name": "characterNames",
          "type": "string[]"
        },
        {
          "internalType": "string[]",
          "name": "characterImageURIs",
          "type": "string[]"
        },
        {
          "internalType": "uint256[]",
          "name": "characterHp",
          "type": "uint256[]"
        },
        {
          "internalType": "uint256[]",
          "name": "characterAttackDmg",
          "type": "uint256[]"
        },
        {
          "internalType": "string",
          "name": "bossName",
          "type": "string"
        },
        {
          "internalType": "string",
          "name": "bossImageURI",
          "type": "string"
        },
        {
          "internalType": "uint256",
          "name": "bossHp",
          "type": "uint256"
        },
        {
          "internalType": "uint256",
          "name": "bossAttackDamage",
          "type": "uint256"
        }
      ],
      "stateMutability": "nonpayable",
      "type": "constructor"
    },
    {
      "anonymous": false,
      "inputs": [
        {
          "indexed": true,
          "internalType": "address",
          "name": "owner",
          "type": "address"
        },
        {
          "indexed": true,
          "internalType": "address",
          "name": "approved",
          "type": "address"
        },
        {
          "indexed": true,
          "internalType": "uint256",
          "name": "tokenId",
          "type": "uint256"
        }
      ],
      "name": "Approval",
      "type": "event"
    },
    {
      "anonymous": false,
      "inputs": [
        {
          "indexed": true,
          "internalType": "address",
          "name": "owner",
          "type": "address"
        },
        {
          "indexed": true,
          "internalType": "address",
          "name": "operator",
          "type": "address"
        },
        {
          "indexed": false,
          "internalType": "bool",
          "name": "approved",
          "type": "bool"
        }
      ],
      "name": "ApprovalForAll",
      "type": "event"
    },
    {
      "anonymous": false,
      "inputs": [
        {
          "indexed": false,
          "internalType": "address",
          "name": "sender",
          "type": "address"
        },
        {
          "indexed": false,
          "internalType": "uint256",
          "name": "newBossHp",
          "type": "uint256"
        },
        {
          "indexed": false,
          "internalType": "uint256",
          "name": "newPlayerHp",
          "type": "uint256"
        }
      ],
      "name": "AttackComplete",
      "type": "event"
    },
    {
      "anonymous": false,
      "inputs": [
        {
          "indexed": false,
          "internalType": "address",
          "name": "sender",
          "type": "address"
        },
        {
          "indexed": false,
          "internalType": "uint256",
          "name": "tokenId",
          "type": "uint256"
        },
        {
          "indexed": false,
          "internalType": "uint256",
          "name": "characterIndex",
          "type": "uint256"
        }
      ],
      "name": "CharacterNFTMinted",
      "type": "event"
    },
    {
      "anonymous": false,
      "inputs": [
        {
          "indexed": true,
          "internalType": "address",
          "name": "from",
          "type": "address"
        },
        {
          "indexed": true,
          "internalType": "address",
          "name": "to",
          "type": "address"
        },
        {
          "indexed": true,
          "internalType": "uint256",
          "name": "tokenId",
          "type": "uint256"
        }
      ],
      "name": "Transfer",
      "type": "event"
    },
    {
      "inputs": [
        {
          "internalType": "address",
          "name": "to",
          "type": "address"
        },
        {
          "internalType": "uint256",
          "name": "tokenId",
          "type": "uint256"
        }
      ],
      "name": "approve",
      "outputs": [],
      "stateMutability": "nonpayable",
      "type": "function"
    },
    {
      "inputs": [],
      "name": "attackBoss",
      "outputs": [],
      "stateMutability": "nonpayable",
      "type": "function"
    },
    {
      "inputs": [
        {
          "internalType": "address",
          "name": "owner",
          "type": "address"
        }
      ],
      "name": "balanceOf",
      "outputs": [
        {
          "internalType": "uint256",
          "name": "",
          "type": "uint256"
        }
      ],
      "stateMutability": "view",
      "type": "function"
    },
    {
      "inputs": [],
      "name": "bigBoss",
      "outputs": [
        {
          "internalType": "string",
          "name": "name",
          "type": "string"
        },
        {
          "internalType": "string",
          "name": "imageURI",
          "type": "string"
        },
        {
          "internalType": "uint256",
          "name": "hp",
          "type": "uint256"
        },
        {
          "internalType": "uint256",
          "name": "maxHp",
          "type": "uint256"
        },
        {
          "internalType": "uint256",
          "name": "attackDamage",
          "type": "uint256"
        }
      ],
      "stateMutability": "view",
      "type": "function"
    },
    {
      "inputs": [],
      "name": "checkIfUserHasNFT",
      "outputs": [
        {
          "components": [
            {
              "internalType": "uint256",
              "name": "characterIndex",
              "type": "uint256"
            },
            {
              "internalType": "string",
              "name": "name",
              "type": "string"
            },
            {
              "internalType": "string",
              "name": "imageURI",
              "type": "string"
            },
            {
              "internalType": "uint256",
              "name": "hp",
              "type": "uint256"
            },
            {
              "internalType": "uint256",
              "name": "maxHp",
              "type": "uint256"
            },
            {
              "internalType": "uint256",
              "name": "attackDamage",
              "type": "uint256"
            }
          ],
          "internalType": "struct MyEpicGame.CharacterAttributes",
          "name": "",
          "type": "tuple"
        }
      ],
      "stateMutability": "view",
      "type": "function"
    },
    {
      "inputs": [],
      "name": "getAllDefaultCharacters",
      "outputs": [
        {
          "components": [
            {
              "internalType": "uint256",
              "name": "characterIndex",
              "type": "uint256"
            },
            {
              "internalType": "string",
              "name": "name",
              "type": "string"
            },
            {
              "internalType": "string",
              "name": "imageURI",
              "type": "string"
            },
            {
              "internalType": "uint256",
              "name": "hp",
              "type": "uint256"
            },
            {
              "internalType": "uint256",
              "name": "maxHp",
              "type": "uint256"
            },
            {
              "internalType": "uint256",
              "name": "attackDamage",
              "type": "uint256"
            }
          ],
          "internalType": "struct MyEpicGame.CharacterAttributes[]",
          "name": "",
          "type": "tuple[]"
        }
      ],
      "stateMutability": "view",
      "type": "function"
    },
    {
      "inputs": [
        {
          "internalType": "uint256",
          "name": "tokenId",
          "type": "uint256"
        }
      ],
      "name": "getApproved",
      "outputs": [
        {
          "internalType": "address",
          "name": "",
          "type": "address"
        }
      ],
      "stateMutability": "view",
      "type": "function"
    },
    {
      "inputs": [],
      "name": "getBigBoss",
      "outputs": [
        {
          "components": [
            {
              "internalType": "string",
              "name": "name",
              "type": "string"
            },
            {
              "internalType": "string",
              "name": "imageURI",
              "type": "string"
            },
            {
              "internalType": "uint256",
              "name": "hp",
              "type": "uint256"
            },
            {
              "internalType": "uint256",
              "name": "maxHp",
              "type": "uint256"
            },
            {
              "internalType": "uint256",
              "name": "attackDamage",
              "type": "uint256"
            }
          ],
          "internalType": "struct MyEpicGame.BigBoss",
          "name": "",
          "type": "tuple"
        }
      ],
      "stateMutability": "view",
      "type": "function"
    },
    {
      "inputs": [],
      "name": "getListOfAllHolders",
      "outputs": [
        {
          "internalType": "address[]",
          "name": "",
          "type": "address[]"
        }
      ],
      "stateMutability": "view",
      "type": "function"
    },
    {
      "inputs": [
        {
          "internalType": "address",
          "name": "owner",
          "type": "address"
        },
        {
          "internalType": "address",
          "name": "operator",
          "type": "address"
        }
      ],
      "name": "isApprovedForAll",
      "outputs": [
        {
          "internalType": "bool",
          "name": "",
          "type": "bool"
        }
      ],
      "stateMutability": "view",
      "type": "function"
    },
    {
      "inputs": [
        {
          "internalType": "uint256",
          "name": "_characterIndex",
          "type": "uint256"
        }
      ],
      "name": "mintCharacterNFT",
      "outputs": [],
      "stateMutability": "nonpayable",
      "type": "function"
    },
    {
      "inputs": [],
      "name": "name",
      "outputs": [
        {
          "internalType": "string",
          "name": "",
          "type": "string"
        }
      ],
      "stateMutability": "view",
      "type": "function"
    },
    {
      "inputs": [
        {
          "internalType": "uint256",
          "name": "",
          "type": "uint256"
        }
      ],
      "name": "nftHolderAttributes",
      "outputs": [
        {
          "internalType": "uint256",
          "name": "characterIndex",
          "type": "uint256"
        },
        {
          "internalType": "string",
          "name": "name",
          "type": "string"
        },
        {
          "internalType": "string",
          "name": "imageURI",
          "type": "string"
        },
        {
          "internalType": "uint256",
          "name": "hp",
          "type": "uint256"
        },
        {
          "internalType": "uint256",
          "name": "maxHp",
          "type": "uint256"
        },
        {
          "internalType": "uint256",
          "name": "attackDamage",
          "type": "uint256"
        }
      ],
      "stateMutability": "view",
      "type": "function"
    },
    {
      "inputs": [
        {
          "internalType": "address",
          "name": "",
          "type": "address"
        }
      ],
      "name": "nftHolders",
      "outputs": [
        {
          "internalType": "uint256",
          "name": "",
          "type": "uint256"
        }
      ],
      "stateMutability": "view",
      "type": "function"
    },
    {
      "inputs": [
        {
          "internalType": "uint256",
          "name": "tokenId",
          "type": "uint256"
        }
      ],
      "name": "ownerOf",
      "outputs": [
        {
          "internalType": "address",
          "name": "",
          "type": "address"
        }
      ],
      "stateMutability": "view",
      "type": "function"
    },
    {
      "inputs": [
        {
          "internalType": "address",
          "name": "from",
          "type": "address"
        },
        {
          "internalType": "address",
          "name": "to",
          "type": "address"
        },
        {
          "internalType": "uint256",
          "name": "tokenId",
          "type": "uint256"
        }
      ],
      "name": "safeTransferFrom",
      "outputs": [],
      "stateMutability": "nonpayable",
      "type": "function"
    },
    {
      "inputs": [
        {
          "internalType": "address",
          "name": "from",
          "type": "address"
        },
        {
          "internalType": "address",
          "name": "to",
          "type": "address"
        },
        {
          "internalType": "uint256",
          "name": "tokenId",
          "type": "uint256"
        },
        {
          "internalType": "bytes",
          "name": "_data",
          "type": "bytes"
        }
      ],
      "name": "safeTransferFrom",
      "outputs": [],
      "stateMutability": "nonpayable",
      "type": "function"
    },
    {
      "inputs": [
        {
          "internalType": "address",
          "name": "operator",
          "type": "address"
        },
        {
          "internalType": "bool",
          "name": "approved",
          "type": "bool"
        }
      ],
      "name": "setApprovalForAll",
      "outputs": [],
      "stateMutability": "nonpayable",
      "type": "function"
    },
    {
      "inputs": [
        {
          "internalType": "bytes4",
          "name": "interfaceId",
          "type": "bytes4"
        }
      ],
      "name": "supportsInterface",
      "outputs": [
        {
          "internalType": "bool",
          "name": "",
          "type": "bool"
        }
      ],
      "stateMutability": "view",
      "type": "function"
    },
    {
      "inputs": [],
      "name": "symbol",
      "outputs": [
        {
          "internalType": "string",
          "name": "",
          "type": "string"
        }
      ],
      "stateMutability": "view",
      "type": "function"
    },
    {
      "inputs": [
        {
          "internalType": "uint256",
          "name": "_tokenId",
          "type": "uint256"
        }
      ],
      "name": "tokenURI",
      "outputs": [
        {
          "internalType": "string",
          "name": "",
          "type": "string"
        }
      ],
      "stateMutability": "view",
      "type": "function"
    },
    {
      "inputs": [
        {
          "internalType": "address",
          "name": "from",
          "type": "address"
        },
        {
          "internalType": "address",
          "name": "to",
          "type": "address"
        },
        {
          "internalType": "uint256",
          "name": "tokenId",
          "type": "uint256"
        }
      ],
      "name": "transferFrom",
      "outputs": [],
      "stateMutability": "nonpayable",
      "type": "function"
    }
  ],
  "bytecode": "0x60806040523480156200001157600080fd5b5060405162005a8338038062005a83833981810160405281019062000037919062000a5a565b6040518060400160405280600681526020017f4865726f657300000000000000000000000000000000000000000000000000008152506040518060400160405280600481526020017f4845524f000000000000000000000000000000000000000000000000000000008152508160009080519060200190620000bb929190620007ed565b508060019080519060200190620000d4929190620007ed565b5050506040518060a0016040528085815260200184815260200183815260200183815260200182815250600a60008201518160000190805190602001906200011e929190620007ed565b5060208201518160010190805190602001906200013d929190620007ed565b50604082015181600201556060820151816003015560808201518160040155905050620002c06040518060600160405280602a815260200162005a59602a9139600a60000180546200018f9062000ddd565b80601f0160208091040260200160405190810160405280929190818152602001828054620001bd9062000ddd565b80156200020e5780601f10620001e2576101008083540402835291602001916200020e565b820191906000526020600020905b815481529060010190602001808311620001f057829003601f168201915b5050505050600a60020154600a60010180546200022b9062000ddd565b80601f0160208091040260200160405190810160405280929190818152602001828054620002599062000ddd565b8015620002aa5780601f106200027e57610100808354040283529160200191620002aa565b820191906000526020600020905b8154815290600101906020018083116200028c57829003601f168201915b50505050506200070260201b62001d3a1760201c565b60005b8851811015620006dc5760076040518060c001604052808381526020018b84815181106200031a577f4e487b7100000000000000000000000000000000000000000000000000000000600052603260045260246000fd5b602002602001015181526020018a848151811062000361577f4e487b7100000000000000000000000000000000000000000000000000000000600052603260045260246000fd5b60200260200101518152602001898481518110620003a8577f4e487b7100000000000000000000000000000000000000000000000000000000600052603260045260246000fd5b60200260200101518152602001898481518110620003ef577f4e487b7100000000000000000000000000000000000000000000000000000000600052603260045260246000fd5b6020026020010151815260200188848151811062000436577f4e487b7100000000000000000000000000000000000000000000000000000000600052603260045260246000fd5b6020026020010151815250908060018154018082558091505060019003906000526020600020906006020160009091909190915060008201518160000155602082015181600101908051906020019062000492929190620007ed565b506040820151816002019080519060200190620004b1929190620007ed565b50606082015181600301556080820151816004015560a0820151816005015550506000600782815481106200050f577f4e487b7100000000000000000000000000000000000000000000000000000000600052603260045260246000fd5b90600052602060002090600602016040518060c001604052908160008201548152602001600182018054620005449062000ddd565b80601f0160208091040260200160405190810160405280929190818152602001828054620005729062000ddd565b8015620005c35780601f106200059757610100808354040283529160200191620005c3565b820191906000526020600020905b815481529060010190602001808311620005a557829003601f168201915b50505050508152602001600282018054620005de9062000ddd565b80601f01602080910402602001604051908101604052809291908181526020018280546200060c9062000ddd565b80156200065d5780601f1062000631576101008083540402835291602001916200065d565b820191906000526020600020905b8154815290600101906020018083116200063f57829003601f168201915b5050505050815260200160038201548152602001600482015481526020016005820154815250509050620006c460405180606001604052806025815260200162005a34602591398260200151836060015184604001516200070260201b62001d3a1760201c565b50600181620006d4919062000d40565b9050620002c3565b50620006f46006620007ae60201b62001ddc1760201c565b505050505050505062000f01565b620007a8848484846040516024016200071f949392919062000c05565b6040516020818303038152906040527f8d142cdd000000000000000000000000000000000000000000000000000000007bffffffffffffffffffffffffffffffffffffffffffffffffffffffff19166020820180517bffffffffffffffffffffffffffffffffffffffffffffffffffffffff8381831617835250505050620007c460201b60201c565b50505050565b6001816000016000828254019250508190555050565b60008151905060006a636f6e736f6c652e6c6f679050602083016000808483855afa5050505050565b828054620007fb9062000ddd565b90600052602060002090601f0160209004810192826200081f57600085556200086b565b82601f106200083a57805160ff19168380011785556200086b565b828001600101855582156200086b579182015b828111156200086a5782518255916020019190600101906200084d565b5b5090506200087a91906200087e565b5090565b5b80821115620008995760008160009055506001016200087f565b5090565b6000620008b4620008ae8462000c90565b62000c67565b9050808382526020820190508260005b85811015620008f85781518501620008dd888262000a16565b845260208401935060208301925050600181019050620008c4565b5050509392505050565b600062000919620009138462000cbf565b62000c67565b905080838252602082019050828560208602820111156200093957600080fd5b60005b858110156200096d578162000952888262000a43565b8452602084019350602083019250506001810190506200093c565b5050509392505050565b60006200098e620009888462000cee565b62000c67565b905082815260208101848484011115620009a757600080fd5b620009b484828562000da7565b509392505050565b600082601f830112620009ce57600080fd5b8151620009e08482602086016200089d565b91505092915050565b600082601f830112620009fb57600080fd5b815162000a0d84826020860162000902565b91505092915050565b600082601f83011262000a2857600080fd5b815162000a3a84826020860162000977565b91505092915050565b60008151905062000a548162000ee7565b92915050565b600080600080600080600080610100898b03121562000a7857600080fd5b600089015167ffffffffffffffff81111562000a9357600080fd5b62000aa18b828c01620009bc565b985050602089015167ffffffffffffffff81111562000abf57600080fd5b62000acd8b828c01620009bc565b975050604089015167ffffffffffffffff81111562000aeb57600080fd5b62000af98b828c01620009e9565b965050606089015167ffffffffffffffff81111562000b1757600080fd5b62000b258b828c01620009e9565b955050608089015167ffffffffffffffff81111562000b4357600080fd5b62000b518b828c0162000a16565b94505060a089015167ffffffffffffffff81111562000b6f57600080fd5b62000b7d8b828c0162000a16565b93505060c062000b908b828c0162000a43565b92505060e062000ba38b828c0162000a43565b9150509295985092959890939650565b600062000bc08262000d24565b62000bcc818562000d2f565b935062000bde81856020860162000da7565b62000be98162000ed6565b840191505092915050565b62000bff8162000d9d565b82525050565b6000608082019050818103600083015262000c21818762000bb3565b9050818103602083015262000c37818662000bb3565b905062000c48604083018562000bf4565b818103606083015262000c5c818462000bb3565b905095945050505050565b600062000c7362000c86565b905062000c81828262000e13565b919050565b6000604051905090565b600067ffffffffffffffff82111562000cae5762000cad62000ea7565b5b602082029050602081019050919050565b600067ffffffffffffffff82111562000cdd5762000cdc62000ea7565b5b602082029050602081019050919050565b600067ffffffffffffffff82111562000d0c5762000d0b62000ea7565b5b62000d178262000ed6565b9050602081019050919050565b600081519050919050565b600082825260208201905092915050565b600062000d4d8262000d9d565b915062000d5a8362000d9d565b9250827fffffffffffffffffffffffffffffffffffffffffffffffffffffffffffffffff0382111562000d925762000d9162000e49565b5b828201905092915050565b6000819050919050565b60005b8381101562000dc757808201518184015260208101905062000daa565b8381111562000dd7576000848401525b50505050565b6000600282049050600182168062000df657607f821691505b6020821081141562000e0d5762000e0c62000e78565b5b50919050565b62000e1e8262000ed6565b810181811067ffffffffffffffff8211171562000e405762000e3f62000ea7565b5b80604052505050565b7f4e487b7100000000000000000000000000000000000000000000000000000000600052601160045260246000fd5b7f4e487b7100000000000000000000000000000000000000000000000000000000600052602260045260246000fd5b7f4e487b7100000000000000000000000000000000000000000000000000000000600052604160045260246000fd5b6000601f19601f8301169050919050565b62000ef28162000d9d565b811462000efe57600080fd5b50565b614b238062000f116000396000f3fe608060405234801561001057600080fd5b50600436106101425760003560e01c806398da4c95116100b8578063c87b56dd1161007c578063c87b56dd14610392578063c8cf27f4146103c2578063d4f24c5b146103e0578063e985e9c5146103ea578063edbd9ec11461041a578063f8b81ef71461043857610142565b806398da4c95146102e5578063a22cb4651461031a578063a9c3267914610336578063b88d4fde14610358578063b953084e1461037457610142565b806323b872dd1161010a57806323b872dd146101ff57806342842e0e1461021b5780636352211e1461023757806370a08231146102675780637df124a11461029757806395d89b41146102c757610142565b806301ffc9a7146101475780630665f9611461017757806306fdde0314610195578063081812fc146101b3578063095ea7b3146101e3575b600080fd5b610161600480360381019061015c91906131ad565b610454565b60405161016e9190613ab9565b60405180910390f35b61017f610536565b60405161018c9190613e52565b60405180910390f35b61019d610692565b6040516101aa9190613ad4565b60405180910390f35b6101cd60048036038101906101c891906131ff565b610724565b6040516101da91906139d7565b60405180910390f35b6101fd60048036038101906101f89190613171565b6107a9565b005b6102196004803603810190610214919061306b565b6108c1565b005b6102356004803603810190610230919061306b565b610921565b005b610251600480360381019061024c91906131ff565b610941565b60405161025e91906139d7565b60405180910390f35b610281600480360381019061027c9190613006565b6109f3565b60405161028e9190613e96565b60405180910390f35b6102b160048036038101906102ac9190613006565b610aab565b6040516102be9190613e96565b60405180910390f35b6102cf610ac3565b6040516102dc9190613ad4565b60405180910390f35b6102ff60048036038101906102fa91906131ff565b610b55565b60405161031196959493929190613eb1565b60405180910390f35b610334600480360381019061032f9190613135565b610ca1565b005b61033e610cb7565b60405161034f959493929190613ba3565b60405180910390f35b610372600480360381019061036d91906130ba565b610deb565b005b61037c610e4d565b6040516103899190613a97565b60405180910390f35b6103ac60048036038101906103a791906131ff565b610ff8565b6040516103b99190613ad4565b60405180910390f35b6103ca611213565b6040516103d79190613e74565b60405180910390f35b6103e86113eb565b005b61040460048036038101906103ff919061302f565b611778565b6040516104119190613ab9565b60405180910390f35b61042261180c565b60405161042f9190613a75565b60405180910390f35b610452600480360381019061044d91906131ff565b61189a565b005b60007f80ac58cd000000000000000000000000000000000000000000000000000000007bffffffffffffffffffffffffffffffffffffffffffffffffffffffff1916827bffffffffffffffffffffffffffffffffffffffffffffffffffffffff1916148061051f57507f5b5e139f000000000000000000000000000000000000000000000000000000007bffffffffffffffffffffffffffffffffffffffffffffffffffffffff1916827bffffffffffffffffffffffffffffffffffffffffffffffffffffffff1916145b8061052f575061052e82611df2565b5b9050919050565b61053e612e2d565b600a6040518060a001604052908160008201805461055b90614207565b80601f016020809104026020016040519081016040528092919081815260200182805461058790614207565b80156105d45780601f106105a9576101008083540402835291602001916105d4565b820191906000526020600020905b8154815290600101906020018083116105b757829003601f168201915b505050505081526020016001820180546105ed90614207565b80601f016020809104026020016040519081016040528092919081815260200182805461061990614207565b80156106665780601f1061063b57610100808354040283529160200191610666565b820191906000526020600020905b81548152906001019060200180831161064957829003601f168201915b505050505081526020016002820154815260200160038201548152602001600482015481525050905090565b6060600080546106a190614207565b80601f01602080910402602001604051908101604052809291908181526020018280546106cd90614207565b801561071a5780601f106106ef5761010080835404028352916020019161071a565b820191906000526020600020905b8154815290600101906020018083116106fd57829003601f168201915b5050505050905090565b600061072f82611e5c565b61076e576040517f08c379a000000000000000000000000000000000000000000000000000000000815260040161076590613df2565b60405180910390fd5b6004600083815260200190815260200160002060009054906101000a900473ffffffffffffffffffffffffffffffffffffffff169050919050565b60006107b482610941565b90508073ffffffffffffffffffffffffffffffffffffffff168373ffffffffffffffffffffffffffffffffffffffff161415610825576040517f08c379a000000000000000000000000000000000000000000000000000000000815260040161081c90613e12565b60405180910390fd5b8073ffffffffffffffffffffffffffffffffffffffff16610844611ec8565b73ffffffffffffffffffffffffffffffffffffffff16148061087357506108728161086d611ec8565b611778565b5b6108b2576040517f08c379a00000000000000000000000000000000000000000000000000000000081526004016108a990613d52565b60405180910390fd5b6108bc8383611ed0565b505050565b6108d26108cc611ec8565b82611f89565b610911576040517f08c379a000000000000000000000000000000000000000000000000000000000815260040161090890613e32565b60405180910390fd5b61091c838383612067565b505050565b61093c83838360405180602001604052806000815250610deb565b505050565b6000806002600084815260200190815260200160002060009054906101000a900473ffffffffffffffffffffffffffffffffffffffff169050600073ffffffffffffffffffffffffffffffffffffffff168173ffffffffffffffffffffffffffffffffffffffff1614156109ea576040517f08c379a00000000000000000000000000000000000000000000000000000000081526004016109e190613d92565b60405180910390fd5b80915050919050565b60008073ffffffffffffffffffffffffffffffffffffffff168273ffffffffffffffffffffffffffffffffffffffff161415610a64576040517f08c379a0000000000000000000000000000000000000000000000000000000008152600401610a5b90613d72565b60405180910390fd5b600360008373ffffffffffffffffffffffffffffffffffffffff1673ffffffffffffffffffffffffffffffffffffffff168152602001908152602001600020549050919050565b600f6020528060005260406000206000915090505481565b606060018054610ad290614207565b80601f0160208091040260200160405190810160405280929190818152602001828054610afe90614207565b8015610b4b5780601f10610b2057610100808354040283529160200191610b4b565b820191906000526020600020905b815481529060010190602001808311610b2e57829003601f168201915b5050505050905090565b6009602052806000526040600020600091509050806000015490806001018054610b7e90614207565b80601f0160208091040260200160405190810160405280929190818152602001828054610baa90614207565b8015610bf75780601f10610bcc57610100808354040283529160200191610bf7565b820191906000526020600020905b815481529060010190602001808311610bda57829003601f168201915b505050505090806002018054610c0c90614207565b80601f0160208091040260200160405190810160405280929190818152602001828054610c3890614207565b8015610c855780601f10610c5a57610100808354040283529160200191610c85565b820191906000526020600020905b815481529060010190602001808311610c6857829003601f168201915b5050505050908060030154908060040154908060050154905086565b610cb3610cac611ec8565b83836122ce565b5050565b600a806000018054610cc890614207565b80601f0160208091040260200160405190810160405280929190818152602001828054610cf490614207565b8015610d415780601f10610d1657610100808354040283529160200191610d41565b820191906000526020600020905b815481529060010190602001808311610d2457829003601f168201915b505050505090806001018054610d5690614207565b80601f0160208091040260200160405190810160405280929190818152602001828054610d8290614207565b8015610dcf5780601f10610da457610100808354040283529160200191610dcf565b820191906000526020600020905b815481529060010190602001808311610db257829003601f168201915b5050505050908060020154908060030154908060040154905085565b610dfc610df6611ec8565b83611f89565b610e3b576040517f08c379a0000000000000000000000000000000000000000000000000000000008152600401610e3290613e32565b60405180910390fd5b610e478484848461243b565b50505050565b60606007805480602002602001604051908101604052809291908181526020016000905b82821015610fef57838290600052602060002090600602016040518060c001604052908160008201548152602001600182018054610eae90614207565b80601f0160208091040260200160405190810160405280929190818152602001828054610eda90614207565b8015610f275780601f10610efc57610100808354040283529160200191610f27565b820191906000526020600020905b815481529060010190602001808311610f0a57829003601f168201915b50505050508152602001600282018054610f4090614207565b80601f0160208091040260200160405190810160405280929190818152602001828054610f6c90614207565b8015610fb95780601f10610f8e57610100808354040283529160200191610fb9565b820191906000526020600020905b815481529060010190602001808311610f9c57829003601f168201915b50505050508152602001600382015481526020016004820154815260200160058201548152505081526020019060010190610e71565b50505050905090565b60606000600960008481526020019081526020016000206040518060c00160405290816000820154815260200160018201805461103490614207565b80601f016020809104026020016040519081016040528092919081815260200182805461106090614207565b80156110ad5780601f10611082576101008083540402835291602001916110ad565b820191906000526020600020905b81548152906001019060200180831161109057829003601f168201915b505050505081526020016002820180546110c690614207565b80601f01602080910402602001604051908101604052809291908181526020018280546110f290614207565b801561113f5780601f106111145761010080835404028352916020019161113f565b820191906000526020600020905b81548152906001019060200180831161112257829003601f168201915b505050505081526020016003820154815260200160048201548152602001600582015481525050905060006111778260600151612497565b905060006111888360800151612497565b905060006111998460a00151612497565b905060006111df85602001516111ae89612497565b87604001518787876040516020016111cb96959493929190613910565b604051602081830303815290604052612644565b90506000816040516020016111f491906139b5565b6040516020818303038152906040529050809650505050505050919050565b61121b612e5c565b6000600f60003373ffffffffffffffffffffffffffffffffffffffff1673ffffffffffffffffffffffffffffffffffffffff16815260200190815260200160002054905060008111156113da57600960008281526020019081526020016000206040518060c0016040529081600082015481526020016001820180546112a090614207565b80601f01602080910402602001604051908101604052809291908181526020018280546112cc90614207565b80156113195780601f106112ee57610100808354040283529160200191611319565b820191906000526020600020905b8154815290600101906020018083116112fc57829003601f168201915b5050505050815260200160028201805461133290614207565b80601f016020809104026020016040519081016040528092919081815260200182805461135e90614207565b80156113ab5780601f10611380576101008083540402835291602001916113ab565b820191906000526020600020905b81548152906001019060200180831161138e57829003601f168201915b5050505050815260200160038201548152602001600482015481526020016005820154815250509150506113e8565b6113e2612e5c565b80925050505b90565b6000600f60003373ffffffffffffffffffffffffffffffffffffffff1673ffffffffffffffffffffffffffffffffffffffff16815260200190815260200160002054905060006009600083815260200190815260200160002090506114fe6040518060600160405280603c8152602001614ab2603c913982600101805461147190614207565b80601f016020809104026020016040519081016040528092919081815260200182805461149d90614207565b80156114ea5780601f106114bf576101008083540402835291602001916114ea565b820191906000526020600020905b8154815290600101906020018083116114cd57829003601f168201915b505050505083600301548460050154612802565b6115d66040518060400160405280601b81526020017f426f73732025732068617320257320485020616e642025732041440000000000815250600a600001805461154790614207565b80601f016020809104026020016040519081016040528092919081815260200182805461157390614207565b80156115c05780601f10611595576101008083540402835291602001916115c0565b820191906000526020600020905b8154815290600101906020018083116115a357829003601f168201915b5050505050600a60020154600a60040154612802565b600081600301541161161d576040517f08c379a000000000000000000000000000000000000000000000000000000000815260040161161490613db2565b60405180910390fd5b6000600a6002015411611665576040517f08c379a000000000000000000000000000000000000000000000000000000000815260040161165c90613cb2565b60405180910390fd5b8060050154600a600201541015611686576000600a600201819055506116a5565b8060050154600a6002015461169b919061411d565b600a600201819055505b600a60040154816003015410156116c557600081600301819055506116e3565b600a6004015481600301546116da919061411d565b81600301819055505b61170a6040518060600160405280602581526020016149f760259139600a600201546128a4565b611730604051806060016040528060288152602001614a5c6028913982600301546128a4565b7f32bd565ee3f2cb5ddd742bbecd6048d3e9abe90b3827a40c2b72d232e71e3c9d33600a60020154836003015460405161176c93929190613a3e565b60405180910390a15050565b6000600560008473ffffffffffffffffffffffffffffffffffffffff1673ffffffffffffffffffffffffffffffffffffffff16815260200190815260200160002060008373ffffffffffffffffffffffffffffffffffffffff1673ffffffffffffffffffffffffffffffffffffffff16815260200190815260200160002060009054906101000a900460ff16905092915050565b6060600880548060200260200160405190810160405280929190818152602001828054801561189057602002820191906000526020600020905b8160009054906101000a900473ffffffffffffffffffffffffffffffffffffffff1673ffffffffffffffffffffffffffffffffffffffff1681526020019060010190808311611846575b5050505050905090565b60006118a66006612940565b90506118b2338261294e565b6040518060c00160405280838152602001600784815481106118fd577f4e487b7100000000000000000000000000000000000000000000000000000000600052603260045260246000fd5b9060005260206000209060060201600101805461191990614207565b80601f016020809104026020016040519081016040528092919081815260200182805461194590614207565b80156119925780601f1061196757610100808354040283529160200191611992565b820191906000526020600020905b81548152906001019060200180831161197557829003601f168201915b50505050508152602001600784815481106119d6577f4e487b7100000000000000000000000000000000000000000000000000000000600052603260045260246000fd5b906000526020600020906006020160020180546119f290614207565b80601f0160208091040260200160405190810160405280929190818152602001828054611a1e90614207565b8015611a6b5780601f10611a4057610100808354040283529160200191611a6b565b820191906000526020600020905b815481529060010190602001808311611a4e57829003601f168201915b5050505050815260200160078481548110611aaf577f4e487b7100000000000000000000000000000000000000000000000000000000600052603260045260246000fd5b906000526020600020906006020160030154815260200160078481548110611b00577f4e487b7100000000000000000000000000000000000000000000000000000000600052603260045260246000fd5b906000526020600020906006020160040154815260200160078481548110611b51577f4e487b7100000000000000000000000000000000000000000000000000000000600052603260045260246000fd5b90600052602060002090600602016005015481525060096000838152602001908152602001600020600082015181600001556020820151816001019080519060200190611b9f929190612e92565b506040820151816002019080519060200190611bbc929190612e92565b50606082015181600301556080820151816004015560a08201518160050155905050611c016040518060600160405280602e8152602001614a84602e9139828461296c565b6001600f60003373ffffffffffffffffffffffffffffffffffffffff1673ffffffffffffffffffffffffffffffffffffffff168152602001908152602001600020541015611cad576008339080600181540180825580915050600190039060005260206000200160009091909190916101000a81548173ffffffffffffffffffffffffffffffffffffffff021916908373ffffffffffffffffffffffffffffffffffffffff1602179055505b80600f60003373ffffffffffffffffffffffffffffffffffffffff1673ffffffffffffffffffffffffffffffffffffffff16815260200190815260200160002081905550611cfb6006611ddc565b7f4bc303fd457a97b4691b9af582ce71868a3d258638c8d4f8c60988a0f0bfb8cd338284604051611d2e93929190613a3e565b60405180910390a15050565b611dd684848484604051602401611d549493929190613af6565b6040516020818303038152906040527f8d142cdd000000000000000000000000000000000000000000000000000000007bffffffffffffffffffffffffffffffffffffffffffffffffffffffff19166020820180517bffffffffffffffffffffffffffffffffffffffffffffffffffffffff8381831617835250505050612a0b565b50505050565b6001816000016000828254019250508190555050565b60007f01ffc9a7000000000000000000000000000000000000000000000000000000007bffffffffffffffffffffffffffffffffffffffffffffffffffffffff1916827bffffffffffffffffffffffffffffffffffffffffffffffffffffffff1916149050919050565b60008073ffffffffffffffffffffffffffffffffffffffff166002600084815260200190815260200160002060009054906101000a900473ffffffffffffffffffffffffffffffffffffffff1673ffffffffffffffffffffffffffffffffffffffff1614159050919050565b600033905090565b816004600083815260200190815260200160002060006101000a81548173ffffffffffffffffffffffffffffffffffffffff021916908373ffffffffffffffffffffffffffffffffffffffff160217905550808273ffffffffffffffffffffffffffffffffffffffff16611f4383610941565b73ffffffffffffffffffffffffffffffffffffffff167f8c5be1e5ebec7d5bd14f71427d1e84f3dd0314c0f7b2291e5b200ac8c7c3b92560405160405180910390a45050565b6000611f9482611e5c565b611fd3576040517f08c379a0000000000000000000000000000000000000000000000000000000008152600401611fca90613d32565b60405180910390fd5b6000611fde83610941565b90508073ffffffffffffffffffffffffffffffffffffffff168473ffffffffffffffffffffffffffffffffffffffff161480612020575061201f8185611778565b5b8061205e57508373ffffffffffffffffffffffffffffffffffffffff1661204684610724565b73ffffffffffffffffffffffffffffffffffffffff16145b91505092915050565b8273ffffffffffffffffffffffffffffffffffffffff1661208782610941565b73ffffffffffffffffffffffffffffffffffffffff16146120dd576040517f08c379a00000000000000000000000000000000000000000000000000000000081526004016120d490613c92565b60405180910390fd5b600073ffffffffffffffffffffffffffffffffffffffff168273ffffffffffffffffffffffffffffffffffffffff16141561214d576040517f08c379a000000000000000000000000000000000000000000000000000000000815260040161214490613cf2565b60405180910390fd5b612158838383612a34565b612163600082611ed0565b6001600360008573ffffffffffffffffffffffffffffffffffffffff1673ffffffffffffffffffffffffffffffffffffffff16815260200190815260200160002060008282546121b3919061411d565b925050819055506001600360008473ffffffffffffffffffffffffffffffffffffffff1673ffffffffffffffffffffffffffffffffffffffff168152602001908152602001600020600082825461220a919061403c565b92505081905550816002600083815260200190815260200160002060006101000a81548173ffffffffffffffffffffffffffffffffffffffff021916908373ffffffffffffffffffffffffffffffffffffffff160217905550808273ffffffffffffffffffffffffffffffffffffffff168473ffffffffffffffffffffffffffffffffffffffff167fddf252ad1be2c89b69c2b068fc378daa952ba7f163c4a11628f55a4df523b3ef60405160405180910390a46122c9838383612a39565b505050565b8173ffffffffffffffffffffffffffffffffffffffff168373ffffffffffffffffffffffffffffffffffffffff16141561233d576040517f08c379a000000000000000000000000000000000000000000000000000000000815260040161233490613d12565b60405180910390fd5b80600560008573ffffffffffffffffffffffffffffffffffffffff1673ffffffffffffffffffffffffffffffffffffffff16815260200190815260200160002060008473ffffffffffffffffffffffffffffffffffffffff1673ffffffffffffffffffffffffffffffffffffffff16815260200190815260200160002060006101000a81548160ff0219169083151502179055508173ffffffffffffffffffffffffffffffffffffffff168373ffffffffffffffffffffffffffffffffffffffff167f17307eab39ab6107e8899845ad3d59bd9653f200f220920489ca2b5937696c318360405161242e9190613ab9565b60405180910390a3505050565b612446848484612067565b61245284848484612a3e565b612491576040517f08c379a000000000000000000000000000000000000000000000000000000000815260040161248890613c72565b60405180910390fd5b50505050565b606060008214156124df576040518060400160405280600181526020017f3000000000000000000000000000000000000000000000000000000000000000815250905061263f565b600082905060005b600082146125115780806124fa9061426a565b915050600a8261250a9190614092565b91506124e7565b60008167ffffffffffffffff811115612553577f4e487b7100000000000000000000000000000000000000000000000000000000600052604160045260246000fd5b6040519080825280601f01601f1916602001820160405280156125855781602001600182028036833780820191505090505b5090505b600085146126385760018261259e919061411d565b9150600a856125ad91906142b3565b60306125b9919061403c565b60f81b8183815181106125f5577f4e487b7100000000000000000000000000000000000000000000000000000000600052603260045260246000fd5b60200101907effffffffffffffffffffffffffffffffffffffffffffffffffffffffffffff1916908160001a905350600a856126319190614092565b9450612589565b8093505050505b919050565b6060600082519050600081141561266d57604051806020016040528060008152509150506127fd565b6000600360028361267e919061403c565b6126889190614092565b600461269491906140c3565b905060006020826126a5919061403c565b67ffffffffffffffff8111156126e4577f4e487b7100000000000000000000000000000000000000000000000000000000600052604160045260246000fd5b6040519080825280601f01601f1916602001820160405280156127165781602001600182028036833780820191505090505b5090506000604051806060016040528060408152602001614a1c604091399050600181016020830160005b868110156127ba5760038101905062ffffff818a015116603f8160121c168401518060081b905060ff603f83600c1c1686015116810190508060081b905060ff603f8360061c1686015116810190508060081b905060ff603f831686015116810190508060e01b90508084526004840193505050612741565b5060038606600181146127d457600281146127e4576127ef565b613d3d60f01b60028303526127ef565b603d60f81b60018303525b508484525050819450505050505b919050565b61289e8484848460405160240161281c9493929190613b50565b6040516020818303038152906040527fd5cf17d0000000000000000000000000000000000000000000000000000000007bffffffffffffffffffffffffffffffffffffffffffffffffffffffff19166020820180517bffffffffffffffffffffffffffffffffffffffffffffffffffffffff8381831617835250505050612a0b565b50505050565b61293c82826040516024016128ba929190613c04565b6040516020818303038152906040527f9710a9d0000000000000000000000000000000000000000000000000000000007bffffffffffffffffffffffffffffffffffffffffffffffffffffffff19166020820180517bffffffffffffffffffffffffffffffffffffffffffffffffffffffff8381831617835250505050612a0b565b5050565b600081600001549050919050565b612968828260405180602001604052806000815250612bd5565b5050565b612a0683838360405160240161298493929190613c34565b6040516020818303038152906040527f969cdd03000000000000000000000000000000000000000000000000000000007bffffffffffffffffffffffffffffffffffffffffffffffffffffffff19166020820180517bffffffffffffffffffffffffffffffffffffffffffffffffffffffff8381831617835250505050612a0b565b505050565b60008151905060006a636f6e736f6c652e6c6f679050602083016000808483855afa5050505050565b505050565b505050565b6000612a5f8473ffffffffffffffffffffffffffffffffffffffff16612c30565b15612bc8578373ffffffffffffffffffffffffffffffffffffffff1663150b7a02612a88611ec8565b8786866040518563ffffffff1660e01b8152600401612aaa94939291906139f2565b602060405180830381600087803b158015612ac457600080fd5b505af1925050508015612af557506040513d601f19601f82011682018060405250810190612af291906131d6565b60015b612b78573d8060008114612b25576040519150601f19603f3d011682016040523d82523d6000602084013e612b2a565b606091505b50600081511415612b70576040517f08c379a0000000000000000000000000000000000000000000000000000000008152600401612b6790613c72565b60405180910390fd5b805181602001fd5b63150b7a0260e01b7bffffffffffffffffffffffffffffffffffffffffffffffffffffffff1916817bffffffffffffffffffffffffffffffffffffffffffffffffffffffff191614915050612bcd565b600190505b949350505050565b612bdf8383612c53565b612bec6000848484612a3e565b612c2b576040517f08c379a0000000000000000000000000000000000000000000000000000000008152600401612c2290613c72565b60405180910390fd5b505050565b6000808273ffffffffffffffffffffffffffffffffffffffff163b119050919050565b600073ffffffffffffffffffffffffffffffffffffffff168273ffffffffffffffffffffffffffffffffffffffff161415612cc3576040517f08c379a0000000000000000000000000000000000000000000000000000000008152600401612cba90613dd2565b60405180910390fd5b612ccc81611e5c565b15612d0c576040517f08c379a0000000000000000000000000000000000000000000000000000000008152600401612d0390613cd2565b60405180910390fd5b612d1860008383612a34565b6001600360008473ffffffffffffffffffffffffffffffffffffffff1673ffffffffffffffffffffffffffffffffffffffff1681526020019081526020016000206000828254612d68919061403c565b92505081905550816002600083815260200190815260200160002060006101000a81548173ffffffffffffffffffffffffffffffffffffffff021916908373ffffffffffffffffffffffffffffffffffffffff160217905550808273ffffffffffffffffffffffffffffffffffffffff16600073ffffffffffffffffffffffffffffffffffffffff167fddf252ad1be2c89b69c2b068fc378daa952ba7f163c4a11628f55a4df523b3ef60405160405180910390a4612e2960008383612a39565b5050565b6040518060a0016040528060608152602001606081526020016000815260200160008152602001600081525090565b6040518060c001604052806000815260200160608152602001606081526020016000815260200160008152602001600081525090565b828054612e9e90614207565b90600052602060002090601f016020900481019282612ec05760008555612f07565b82601f10612ed957805160ff1916838001178555612f07565b82800160010185558215612f07579182015b82811115612f06578251825591602001919060010190612eeb565b5b509050612f149190612f18565b5090565b5b80821115612f31576000816000905550600101612f19565b5090565b6000612f48612f4384613f45565b613f20565b905082815260208101848484011115612f6057600080fd5b612f6b8482856141c5565b509392505050565b600081359050612f828161499a565b92915050565b600081359050612f97816149b1565b92915050565b600081359050612fac816149c8565b92915050565b600081519050612fc1816149c8565b92915050565b600082601f830112612fd857600080fd5b8135612fe8848260208601612f35565b91505092915050565b600081359050613000816149df565b92915050565b60006020828403121561301857600080fd5b600061302684828501612f73565b91505092915050565b6000806040838503121561304257600080fd5b600061305085828601612f73565b925050602061306185828601612f73565b9150509250929050565b60008060006060848603121561308057600080fd5b600061308e86828701612f73565b935050602061309f86828701612f73565b92505060406130b086828701612ff1565b9150509250925092565b600080600080608085870312156130d057600080fd5b60006130de87828801612f73565b94505060206130ef87828801612f73565b935050604061310087828801612ff1565b925050606085013567ffffffffffffffff81111561311d57600080fd5b61312987828801612fc7565b91505092959194509250565b6000806040838503121561314857600080fd5b600061315685828601612f73565b925050602061316785828601612f88565b9150509250929050565b6000806040838503121561318457600080fd5b600061319285828601612f73565b92505060206131a385828601612ff1565b9150509250929050565b6000602082840312156131bf57600080fd5b60006131cd84828501612f9d565b91505092915050565b6000602082840312156131e857600080fd5b60006131f684828501612fb2565b91505092915050565b60006020828403121561321157600080fd5b600061321f84828501612ff1565b91505092915050565b60006132348383613254565b60208301905092915050565b600061324c83836137d2565b905092915050565b61325d81614151565b82525050565b61326c81614151565b82525050565b600061327d82613f96565b6132878185613fdc565b935061329283613f76565b8060005b838110156132c35781516132aa8882613228565b97506132b583613fc2565b925050600181019050613296565b5085935050505092915050565b60006132db82613fa1565b6132e58185613fed565b9350836020820285016132f785613f86565b8060005b8581101561333357848403895281516133148582613240565b945061331f83613fcf565b925060208a019950506001810190506132fb565b50829750879550505050505092915050565b61334e81614163565b82525050565b600061335f82613fac565b6133698185613ffe565b93506133798185602086016141d4565b613382816143a0565b840191505092915050565b600061339882613fb7565b6133a2818561400f565b93506133b28185602086016141d4565b6133bb816143a0565b840191505092915050565b60006133d182613fb7565b6133db8185614020565b93506133eb8185602086016141d4565b6133f4816143a0565b840191505092915050565b600061340a82613fb7565b6134148185614031565b93506134248185602086016141d4565b80840191505092915050565b600061343d600b83614031565b9150613448826143b1565b600b82019050919050565b6000613460603283614020565b915061346b826143da565b604082019050919050565b6000613483602583614020565b915061348e82614429565b604082019050919050565b60006134a6602883614020565b91506134b182614478565b604082019050919050565b60006134c9601c83614020565b91506134d4826144c7565b602082019050919050565b60006134ec603283614031565b91506134f7826144f0565b603282019050919050565b600061350f600e83614031565b915061351a8261453f565b600e82019050919050565b6000613532602483614020565b915061353d82614568565b604082019050919050565b6000613555601983614020565b9150613560826145b7565b602082019050919050565b6000613578602c83614020565b9150613583826145e0565b604082019050919050565b600061359b603883614020565b91506135a68261462f565b604082019050919050565b60006135be602a83614020565b91506135c98261467e565b604082019050919050565b60006135e1602983614020565b91506135ec826146cd565b604082019050919050565b6000613604602d83614020565b915061360f8261471c565b604082019050919050565b6000613627600483614031565b91506136328261476b565b600482019050919050565b600061364a602083614020565b915061365582614794565b602082019050919050565b600061366d602c83614020565b9150613678826147bd565b604082019050919050565b6000613690600a83614031565b915061369b8261480c565b600a82019050919050565b60006136b3602183614020565b91506136be82614835565b604082019050919050565b60006136d6601d83614031565b91506136e182614884565b601d82019050919050565b60006136f9603183614020565b9150613704826148ad565b604082019050919050565b600061371c603d83614031565b9150613727826148fc565b603d82019050919050565b600061373f602d83614031565b915061374a8261494b565b602d82019050919050565b600060a0830160008301518482036000860152613772828261338d565b9150506020830151848203602086015261378c828261338d565b91505060408301516137a160408601826138f2565b5060608301516137b460608601826138f2565b5060808301516137c760808601826138f2565b508091505092915050565b600060c0830160008301516137ea60008601826138f2565b5060208301518482036020860152613802828261338d565b9150506040830151848203604086015261381c828261338d565b915050606083015161383160608601826138f2565b50608083015161384460808601826138f2565b5060a083015161385760a08601826138f2565b508091505092915050565b600060c08301600083015161387a60008601826138f2565b5060208301518482036020860152613892828261338d565b915050604083015184820360408601526138ac828261338d565b91505060608301516138c160608601826138f2565b5060808301516138d460808601826138f2565b5060a08301516138e760a08601826138f2565b508091505092915050565b6138fb816141bb565b82525050565b61390a816141bb565b82525050565b600061391b82613683565b915061392782896133ff565b915061393282613430565b915061393e82886133ff565b9150613949826134df565b915061395582876133ff565b91506139608261370f565b915061396c82866133ff565b915061397782613502565b915061398382856133ff565b915061398e82613732565b915061399a82846133ff565b91506139a58261361a565b9150819050979650505050505050565b60006139c0826136c9565b91506139cc82846133ff565b915081905092915050565b60006020820190506139ec6000830184613263565b92915050565b6000608082019050613a076000830187613263565b613a146020830186613263565b613a216040830185613901565b8181036060830152613a338184613354565b905095945050505050565b6000606082019050613a536000830186613263565b613a606020830185613901565b613a6d6040830184613901565b949350505050565b60006020820190508181036000830152613a8f8184613272565b905092915050565b60006020820190508181036000830152613ab181846132d0565b905092915050565b6000602082019050613ace6000830184613345565b92915050565b60006020820190508181036000830152613aee81846133c6565b905092915050565b60006080820190508181036000830152613b1081876133c6565b90508181036020830152613b2481866133c6565b9050613b336040830185613901565b8181036060830152613b4581846133c6565b905095945050505050565b60006080820190508181036000830152613b6a81876133c6565b90508181036020830152613b7e81866133c6565b9050613b8d6040830185613901565b613b9a6060830184613901565b95945050505050565b600060a0820190508181036000830152613bbd81886133c6565b90508181036020830152613bd181876133c6565b9050613be06040830186613901565b613bed6060830185613901565b613bfa6080830184613901565b9695505050505050565b60006040820190508181036000830152613c1e81856133c6565b9050613c2d6020830184613901565b9392505050565b60006060820190508181036000830152613c4e81866133c6565b9050613c5d6020830185613901565b613c6a6040830184613901565b949350505050565b60006020820190508181036000830152613c8b81613453565b9050919050565b60006020820190508181036000830152613cab81613476565b9050919050565b60006020820190508181036000830152613ccb81613499565b9050919050565b60006020820190508181036000830152613ceb816134bc565b9050919050565b60006020820190508181036000830152613d0b81613525565b9050919050565b60006020820190508181036000830152613d2b81613548565b9050919050565b60006020820190508181036000830152613d4b8161356b565b9050919050565b60006020820190508181036000830152613d6b8161358e565b9050919050565b60006020820190508181036000830152613d8b816135b1565b9050919050565b60006020820190508181036000830152613dab816135d4565b9050919050565b60006020820190508181036000830152613dcb816135f7565b9050919050565b60006020820190508181036000830152613deb8161363d565b9050919050565b60006020820190508181036000830152613e0b81613660565b9050919050565b60006020820190508181036000830152613e2b816136a6565b9050919050565b60006020820190508181036000830152613e4b816136ec565b9050919050565b60006020820190508181036000830152613e6c8184613755565b905092915050565b60006020820190508181036000830152613e8e8184613862565b905092915050565b6000602082019050613eab6000830184613901565b92915050565b600060c082019050613ec66000830189613901565b8181036020830152613ed881886133c6565b90508181036040830152613eec81876133c6565b9050613efb6060830186613901565b613f086080830185613901565b613f1560a0830184613901565b979650505050505050565b6000613f2a613f3b565b9050613f368282614239565b919050565b6000604051905090565b600067ffffffffffffffff821115613f6057613f5f614371565b5b613f69826143a0565b9050602081019050919050565b6000819050602082019050919050565b6000819050602082019050919050565b600081519050919050565b600081519050919050565b600081519050919050565b600081519050919050565b6000602082019050919050565b6000602082019050919050565b600082825260208201905092915050565b600082825260208201905092915050565b600082825260208201905092915050565b600082825260208201905092915050565b600082825260208201905092915050565b600081905092915050565b6000614047826141bb565b9150614052836141bb565b9250827fffffffffffffffffffffffffffffffffffffffffffffffffffffffffffffffff03821115614087576140866142e4565b5b828201905092915050565b600061409d826141bb565b91506140a8836141bb565b9250826140b8576140b7614313565b5b828204905092915050565b60006140ce826141bb565b91506140d9836141bb565b9250817fffffffffffffffffffffffffffffffffffffffffffffffffffffffffffffffff0483118215151615614112576141116142e4565b5b828202905092915050565b6000614128826141bb565b9150614133836141bb565b925082821015614146576141456142e4565b5b828203905092915050565b600061415c8261419b565b9050919050565b60008115159050919050565b60007fffffffff0000000000000000000000000000000000000000000000000000000082169050919050565b600073ffffffffffffffffffffffffffffffffffffffff82169050919050565b6000819050919050565b82818337600083830152505050565b60005b838110156141f25780820151818401526020810190506141d7565b83811115614201576000848401525b50505050565b6000600282049050600182168061421f57607f821691505b6020821081141561423357614232614342565b5b50919050565b614242826143a0565b810181811067ffffffffffffffff8211171561426157614260614371565b5b80604052505050565b6000614275826141bb565b91507fffffffffffffffffffffffffffffffffffffffffffffffffffffffffffffffff8214156142a8576142a76142e4565b5b600182019050919050565b60006142be826141bb565b91506142c9836141bb565b9250826142d9576142d8614313565b5b828206905092915050565b7f4e487b7100000000000000000000000000000000000000000000000000000000600052601160045260246000fd5b7f4e487b7100000000000000000000000000000000000000000000000000000000600052601260045260246000fd5b7f4e487b7100000000000000000000000000000000000000000000000000000000600052602260045260246000fd5b7f4e487b7100000000000000000000000000000000000000000000000000000000600052604160045260246000fd5b6000601f19601f8301169050919050565b7f202d2d204e465420233a20000000000000000000000000000000000000000000600082015250565b7f4552433732313a207472616e7366657220746f206e6f6e20455243373231526560008201527f63656976657220696d706c656d656e7465720000000000000000000000000000602082015250565b7f4552433732313a207472616e736665722066726f6d20696e636f72726563742060008201527f6f776e6572000000000000000000000000000000000000000000000000000000602082015250565b7f4572726f723a20626f7373206d757374206861766520485020746f206174746160008201527f636b20626f73732e000000000000000000000000000000000000000000000000602082015250565b7f4552433732313a20746f6b656e20616c7265616479206d696e74656400000000600082015250565b7f222c20226465736372697074696f6e223a2022416e2065706963204e4654222c60008201527f2022696d616765223a2022697066733a2f2f0000000000000000000000000000602082015250565b7f2c20226d61785f76616c7565223a000000000000000000000000000000000000600082015250565b7f4552433732313a207472616e7366657220746f20746865207a65726f2061646460008201527f7265737300000000000000000000000000000000000000000000000000000000602082015250565b7f4552433732313a20617070726f766520746f2063616c6c657200000000000000600082015250565b7f4552433732313a206f70657261746f7220717565727920666f72206e6f6e657860008201527f697374656e7420746f6b656e0000000000000000000000000000000000000000602082015250565b7f4552433732313a20617070726f76652063616c6c6572206973206e6f74206f7760008201527f6e6572206e6f7220617070726f76656420666f7220616c6c0000000000000000602082015250565b7f4552433732313a2062616c616e636520717565727920666f7220746865207a6560008201527f726f206164647265737300000000000000000000000000000000000000000000602082015250565b7f4552433732313a206f776e657220717565727920666f72206e6f6e657869737460008201527f656e7420746f6b656e0000000000000000000000000000000000000000000000602082015250565b7f4572726f723a20636861726163746572206d757374206861766520485020746f60008201527f2061747461636b20626f73732e00000000000000000000000000000000000000602082015250565b7f7d205d7d00000000000000000000000000000000000000000000000000000000600082015250565b7f4552433732313a206d696e7420746f20746865207a65726f2061646472657373600082015250565b7f4552433732313a20617070726f76656420717565727920666f72206e6f6e657860008201527f697374656e7420746f6b656e0000000000000000000000000000000000000000602082015250565b7f7b226e616d65223a202200000000000000000000000000000000000000000000600082015250565b7f4552433732313a20617070726f76616c20746f2063757272656e74206f776e6560008201527f7200000000000000000000000000000000000000000000000000000000000000602082015250565b7f646174613a6170706c69636174696f6e2f6a736f6e3b6261736536342c000000600082015250565b7f4552433732313a207472616e736665722063616c6c6572206973206e6f74206f60008201527f776e6572206e6f7220617070726f766564000000000000000000000000000000602082015250565b7f222c202261747472696275746573223a205b207b202274726169745f7479706560008201527f223a20224865616c746820506f696e7473222c202276616c7565223a20000000602082015250565b7f7d2c207b202274726169745f74797065223a202241747461636b2044616d616760008201527f65222c202276616c7565223a2000000000000000000000000000000000000000602082015250565b6149a381614151565b81146149ae57600080fd5b50565b6149ba81614163565b81146149c557600080fd5b50565b6149d18161416f565b81146149dc57600080fd5b50565b6149e8816141bb565b81146149f357600080fd5b5056fe506c617965722061747461636b656420626f73732e204e657720626f73732068703a2025734142434445464748494a4b4c4d4e4f505152535455565758595a6162636465666768696a6b6c6d6e6f707172737475767778797a303132333435363738392b2f426f73732061747461636b656420706c617965722e204e657720706c617965722068703a2025730a4d696e746564204e465420772f20746f6b656e496420257320616e6420636861726163746572496e6465782025730a506c6179657220772f206368617261637465722025732061626f757420746f2061747461636b2e2048617320257320485020616e64202573204144a2646970667358221220ff12905d7ed3b9099a26e2b1ad0186db1362b6f683aaa6f79750eb71bc24032564736f6c63430008010033446f6e6520696e697469616c697a696e6720257320772f2048502025732c20696d67202573446f6e6520696e697469616c697a696e6720626f737320257320772f2048502025732c20696d67202573",
  "linkReferences": {},
  "deployedLinkReferences": {}
}